:020000040000FA
:020000003D2899
:100008007E14803120000908F3007308F8000808FE
:10001800F3007308F7000308F3007308F6000508F7
:10002800F3007308EB000408F3007308EA000708FC
:10003800F3007308E9000608F3007308E8000B1FD3
:100048002C282100111C2C282000111C2C283C27AE
:1000580020006B0885006A08840069088700680822
:1000680086007608830077088800780889007E1063
:1000780009003E28F601F701F801F9012000E8011E
:10008800E901EA01EB01EC01ED01A0308400003048
:10009800850040307A277E1020005D2F200031082F
:1000A8008039B6003608BB003135B6003608C100C5
:1000B800B01B4114410803196E28410A031D6C281E
:1000C8000030B1000030B0000030AF000030AE00AA
:1000D800B01776280030B1000030B0000030AF0013
:1000E8000030AE0035088039B6003608BB06353515
:1000F800B6003608BC00B41B3C143C080319912810
:100108003C0A031D8F280030B5000030B4000030D1
:10011800B3000030B200B41799280030B5000030A1
:10012800B4000030B3000030B2003C08031D4108A1
:10013800031DA7280030B1000030B0000030AF0028
:100148000030AE0008002E08B6003608F400340867
:10015800C12675082000C7007408C6004608B60006
:10016800B701B801B9013908C0003808BF0037081D
:10017800BE003608BD004708B600B701B801B9018E
:100188003908C5003808C4003708C3003608C2005B
:100198002F08B6003608F4003308C1267508200079
:1001A800C7007408C6004608B600B701B801B9010F
:1001B8003608BD073708BE3D3808BF3D3908C03D81
:1001C8004708B600B701B801B9013608C2073708B1
:1001D800C33D3808C43D3908C53D3008B600360867
:1001E800F4003208C12675082000C7007408C6004C
:1001F8004608B600B701B801B9013608BD07370887
:10020800BE3D3808BF3D3908C03D4708B600B701B4
:10021800B801B9013608C2073708C33D3808C43DDC
:100228003908C53D0830BD35BE0DBF0DC00D890B61
:1002380017292F08B6003608F4003208C1267508B9
:100248002000C7007408C6004608BD074708BE3D21
:100258000030BF3DC03D2E08B6003608F400330814
:10026800C12675082000C7007408C6004608BD07E7
:100278004708BE3D0030BF3DC03D0830BD35BE0D0E
:10028800BF0DC00D890B42292E08B6003608F400B0
:100298003208C12675082000C7007408C600460841
:1002A800BD074708BE3D0030BF3DC03D2F08B60022
:1002B8003608F4003408C12675082000C700740801
:1002C800C6004608C2074708C33D0030C43DC53DC7
:1002D8003008B6003608F4003308C1267508200037
:1002E800C7007408C6004608C2074708C33D003067
:1002F800C43DC53D3008B6003608F4003408C126B0
:1003080075082000C7007408C6004608B6004708EC
:10031800B700B801B9010830B635B70DB80DB90D39
:10032800890B90293608C2073708C33D3808C43DF1
:100338003908C53D3D08B6003E08B7003F08B8007B
:100348004008B9001830B936B80CB70CB60C890B90
:10035800A7293608C2073708C33D3808C43D3908FD
:10036800C53D0830BD35BE0DBF0DC00D890BB62982
:1003780041083C07B600B701B70D3608823EC600F3
:10038800FF30373DC700C41BDE290130C235C30D1D
:10039800C40DC50D890BCA29C01B42140130BD35D7
:1003A800BE0DBF0DC00D890BD329FF30C607FF3026
:1003B800C73DC729BC01C01FF729FF303D05B6005E
:1003C800FF303E05B700FF303F05B8007F304005DD
:1003D800B900390838043704360403194218F529D6
:1003E800F729BC01BC0A3C080319202A0130C207BE
:1003F8000030C33D0030C43D0030C53D451C202AB7
:100408004208B6004308B7004408B8004508B900D8
:100418000130BA00B937B80CB70CB60CBA0B0E2AB3
:100428003908C5003808C4003708C3003608C200B8
:100438000130C6070030C73D4708803AB600803013
:100448003602031D292AFF304602031C352A7F3055
:100458002000C5008030C4000030C3000030C20056
:100468005F2A20004708803AB60080303602031D14
:100478003F2A0130460203184C2A00302000C500EC
:100488000030C4000030C3000030C200BB015F2A46
:1004980020004608B6003608C100FF30C205FF300C
:1004A800C3057F30C4050030C5054118C41741365F
:1004B800B6003608C5003B08B6003608C50445082E
:1004C800B1004408B0004308AF004208AE0008007D
:1004D80020004B088039D0005008D8004B35D00098
:1004E8005008DA00CA1B5A145A080319892A5A0AEA
:1004F800031D862A0030CB000030CA000030C90036
:100508000030C800CA17CB01912A0030CB00003058
:10051800CA000030C9000030C8004F088039D00038
:100528005008D90059085806031D58174F35D000F0
:100538005008D900CE1B591459080319B12A590A71
:10054800031DAE2A0030CF000030CE000030CD00B1
:100558000030CC00CE17CF01B92A0030CF000030D0
:10056800CE000030CD000030CC005A0859020318E4
:10057800FF2A581FC32A8030D0005008D8065A08CE
:10058800D0005008DB005908D0005008DA005B089A
:10059800D0005008D9004808D0005008DB004C08AB
:1005A800D0005008C8005B08D0005008CC004908AB
:1005B800D0005008DB004D08D0005008C9005B0887
:1005C800D0005008CD004A08D0005008DB004E0883
:1005D800D0005008CA005B08D0005008CE004B0875
:1005E800D0005008DB004F08D0005008CB005B0853
:1005F800D0005008CF00DB015908D000D1015108C4
:10060800D3005A085002D200031CD3035308803A7F
:10061800D40080305402031D132B1A305202031CDD
:10062800472B20004B084A044904480403191E2B91
:1006380001301F2B0030D0005008DB000030CB0009
:100648000030CA000030C9000030C8005908D00086
:100658005008DA004C2B5B1C372B5B360138D00076
:100668005008DB00392B0310DB0C4818DB1701306E
:10067800D000CB37CA0CC90CC80CD00B3D2B0130AD
:10068800D0005008DA07200059085A02031C2F2B03
:10069800581B7D2B5A08031D5A2B0030CB00003005
:1006A800CA000030C9000030C80008004C08C8075C
:1006B8004D08C93D4E08CA3D4F08CB3D4B1CF72B92
:1006C8005B1C6C2B5B360138D0005008DB006E2BAE
:1006D8000310DB0C4818DB170130D000CB37CA0CED
:1006E800C90CC80CD00B722B0130D0005008DA07A7
:1006F800F72B4B08803AD0004F08803A5002031D70
:100708008F2B4E084A02031D8F2B4D084902031DEB
:100718008F2B4C0848020318C72BFF30D000FF303E
:10072800D100FF30D200FF30D30048084C02D4007B
:1007380049084D3BD5004A084E3BD6004B084F3B75
:10074800D7005408D0075508D13D5608D23D570860
:10075800D33D5308CB005208CA005108C9005008BD
:10076800C8008030D0005008D806DB09DB0A5B08D7
:10077800031DCF2B0130C8070030C93D0030CA3DEA
:100788000030CB3DCF2B4C08C8024D08C93B4E0862
:10079800CA3B4F08CB3B4B084A0449044804031D95
:1007A800F52B5B08031DF52B0030CB000030CA0089
:1007B8000030C9000030C80008000130C835C90D34
:1007C800CA0DCB0D890BE22BDB1B48145B1CEE2BEF
:1007D8000314EF2B0310DB0D5A080319F52B013016
:1007E800DA02CA1FE12BD901DB1F022C5B087F3913
:1007F80003194818002C022CD901D90A59080319E1
:100808002E2C0130C8070030C93D0030CA3D0030E9
:10081800CB3D4B1C2E2C4808D0004908D1004A0873
:10082800D2004B08D3000130D400D337D20CD10CFE
:10083800D00CD40B192C5308CB005208CA0051080D
:10084800C9005008C8005A0A03192E2C0130D000DC
:100858005008DA075A0A031D5A08031D3E2C0030B7
:10086800CB000030CA000030C9000030C8005A0868
:100878000319D8015A1C422CCA17462C7F30D000C5
:100888005008CA055A36D0005008CB00D81F0800B7
:10089800CB1708002000A8002808031DA31F642CFC
:1008A8002009AA002109AB002209AC002309AD00E8
:1008B800AA0A0319AB0A0319AC0A0319AD0A6C2C6E
:1008C8002308AD002208AC002108AB002008AA00CC
:1008D8002308220421042004031D7B2C0030A300DC
:1008E8000030A2000030A1000030A00008009630BF
:1008F800A4002408A900FE302D050319A22C0130FC
:10090800A4002408A9070130AD36AC0CAB0CAA0C26
:10091800890B882C7F2C0130A4002408A9070130FA
:10092800AA070030AB3D0030AC3D0030AD3D013092
:10093800AD36AC0CAB0CAA0C890B9C2CFF302D05EA
:100948000319B42C8F2C02302902031CB62C013059
:10095800A9020130AA35AB0DAC0DAD0D890BAE2C3B
:10096800AC1FA72C2918C02CFF30AA05FF30AB05F7
:100978007F30AC05FF30AD050310A90C2908A40091
:10098800A501A601A7011830A435A50DA60DA70D30
:10099800890BC82C2408AA042508AB042608AC0433
:1009A8002708AD042808031DA31FDB2CAD172D084D
:1009B800A3002C08A2002B08A1002A08A000080008
:1009C8002000911E08003F2D68272100EC006C08CC
:1009D800ED0047306D06031D08000130EC006C087F
:1009E8002000ED00080068274F3A031D022D023051
:1009F8002100EC006C082000ED0008002000ED014B
:100A080008006827003A031D080004302100EC00A4
:100A18006C082000ED00080068272100EC006C0835
:100A2800CB0013304B020318022D4B08023EEC009A
:100A38006C08CA000130EC006C08DF000330EC00E1
:100A48006C082000ED00080068272100EC005F0812
:100A5800CB3E860087016C0881000130EC006C08F1
:100A6800DF074A085F02031C08001D26013A031D20
:100A7800022D5125022D6D08003A0319E82C013A80
:100A88000319F72C033A0319052D013A0319282DE8
:100A9800073A0319102D022D080021004B08E80021
:100AA8006808A0002000E701210020082000670254
:100AB800031808006708CC3E86008701010821005A
:100AC800E800E901EA01EB016B082000A30021001E
:100AD8006A082000A200210069082000A100210066
:100AE80068082000A00000304E2420002308B5002C
:100AF8002208B4002108B3002008B200C130B100B8
:100B08007A30B000FB30AF001630AE005220200023
:100B18003108CF003008CE002F08CD002E08CC00B9
:100B28004730CB007830CA003E30C9000030C800DA
:100B38006C2220004B08DF004A08DE004908DD006F
:100B48004808DC00B72520006735A13E86008701EC
:100B58005C08C03F5D08C13F01302100E80068081B
:100B68002000E707582D031020005E0D5F0DE00000
:100B78006008E6006608031DCA2D0030DF0000305B
:100B8800DE000030DD000030DC0008005C08E0001A
:100B98005D08E1005E08E2005F08E3001F30E3360D
:100BA800E20CE10CE00C890BD32D6008E40064082A
:100BB800E500DE17FF30DC05FF30DD05FF30DE0520
:100BC8000030DF059630E602E61FFD2D6608803A04
:100BD800973E031CC12D0130DF36DE0CDD0CDC0C2A
:100BE800890BF02D0130E0006008E60703190E2E8E
:100BF800EF2D203066020318C12D660803190E2E4A
:100C08000130DC35DD0DDE0DDF0D890B052E0130E1
:100C1800E602012E650803190800DC09DD09DE0972
:100C2800DF09DC0A0319DD0A0319DE0A0319DF0AE2
:100C380008002000A001A10121004A08FF3EF4009D
:100C4800FF3003180030F5007508803A803C031D1A
:100C5800302E7408200021020318522E2000A20111
:100C68002108CB3E860087010108F400220A3D2EA8
:100C7800F436890B3C2E740801392007F5007508F5
:100C8800A0000130F4007408A20708302202031CF7
:100C9800342E0130F4007408A107202E21004A08E0
:100CA800CA3E86008701010820002006031D5E2E2B
:100CB8000130080000300800942E22000C129E30EB
:100CC800F0006B30F1004E272100C9010130F2001D
:100CD8007208F900080022000C165F30F000FB30A3
:100CE800F1004E272100200849020318802E023007
:100CF800F2007208F9000800F901080022000C123D
:100D080021004935A13E86008701403FF000413F60
:100D1800F1004E270130F20072082100C9076A2E3F
:100D28007908003A0319612E013A03196F2E033A24
:100D38000319822E9F2E08002100A001A101A20103
:100D48002000A001A00A210020082000200203188A
:100D5800BE2E7F30F4000030F5002035A13E86001D
:100D680087017408C03F7508C13F0130F40074085A
:100D7800A007A72E2100C90108002000A600A20193
:100D8800A3017408A000A1012008A4002108A5005F
:100D9800261CD22E2408A2072508A33D0130A4351D
:100DA800A50D890BD32E0310A60C2608031DCC2EE7
:100DB8002308F5002208F4000800093023009F00EA
:100DC80090309D0004309E0067309B009C010030ED
:100DD800F4000030F50092270030F4000030F500F0
:100DE8008C270030F4000030F50098272000EC0133
:100DF80008002100CA01F5014A0875020318112FDD
:100E08007F30F4007508CB3E8600870174088100A6
:100E18000130F4007408F507002FDF0108002000F6
:100E280099010630970096011708EF001608EE00A2
:100E38001110210011146030F4000630F5008627E7
:100E4800413020009800080022008C012F3021003A
:100E58008C00153023008C0024008C01210095178C
:100E680025008C01373026008C0022009D010800E7
:100E7800200011106F08F1006E08F0004E272100C5
:100E8800660867040319080067088A0066080A00EC
:100E9800873108002000181D582F18107108970076
:100EA80070089600181408007108970070089600DA
:100EB80008008027FD26A0268B170B179E27013ACE
:100EC800031D622FE424622F2000911E682FEC017D
:100ED80023009D1C712F1D121D16190808006A3069
:100EE8002100990098012200960108006400800101
:100EF8000131890B7B2F003428277327B327132749
:100F0800E126080075082100E7007408E6000800DB
:100F180075082100E3007408E20008007508210044
:100F2800E5007408E400080075082100E100740871
:100F3800E00008002000110E890C01390800163461
:100F4800FB347A34C13400343E34783447341634B0
:100F5800FB347A34C13400343E34783447341630A4
:060F6800210097000800C3
:020000040001F9
:04000E0084FFFFD399
:00000001FF
